:020000040800F2
:1000000000C000204D440008292F00082D2F0008B3
:10001000312F0008352F0008392F0008000000009C
:100020000000000000000000000000003D2F00085C
:10003000412F000800000000452F0008492F00084C
:10004000914400089144000891440008914400083C
:10005000914400089144000891440008914400082C
:100060009144000891440008914400084129000887
:10007000914400089144000891440008914400080C
:1000800091440008914400089144000891440008FC
:1000900091440008914400089144000891440008EC
:1000A00091440008914400089144000891440008DC
:1000B00091440008914400089144000891440008CC
:1000C00091440008914400089144000891440008BC
:1000D00091440008914400089144000891440008AC
:1000E000914400089144000891440008914400089C
:1000F000914400089144000891440008914400088C
:10010000914400089144000891440008914400087B
:10011000914400089144000891440008914400086B
:10012000914400089144000891440008914400085B
:10013000914400089144000891440008914400084B
:10014000914400089144000891440008914400083B
:1001500010B5054C237833B9044B13B10448AFF301
:1001600000800123237010BD8401002000000000E6
:1001700040550008084B10B51BB108490848AFF3BB
:1001800000800848036803B910BD074B002BFBD063
:10019000BDE81040184700BF0000000088010020A3
:1001A000405500088401002000000000034613F8B9
:1001B000012B002AFBD1181A0138704700000000FB
:1001C00001F0FF01102A2BDB10F0070F08D010F808
:1001D000013B013A8B422DD010F0070F42B3F6D10C
:1001E000F0B441EA012141EA014122F007047FF025
:1001F00000070023F0E80256083C85EA010586EA7C
:10020000010685FA47F5A3FA87F586FA47F6A5FAB7
:1002100087F68EB9EED1F0BC01F0FF0102F00702C3
:1002200032B110F8013B013A83EA010313B1F8D16E
:100230000020704701387047002D06BF354603384F
:10024000073815F0010F07D1013015F4807F02BF88
:10025000013015F4C03F0130F0BC0138704700BFD9
:1002600081F0004102E000BF83F0004330B54FEA67
:1002700041044FEA430594EA050F08BF90EA020FD4
:100280001FBF54EA000C55EA020C7FEA645C7FEA67
:10029000655C00F0E2804FEA5454D4EB5555B8BF8A
:1002A0006D420CDD2C4480EA020281EA030382EAFB
:1002B000000083EA010180EA020281EA0303362D8D
:1002C00088BF30BD11F0004F4FEA01314FF4801C60
:1002D0004CEA113102D0404261EB410113F0004F72
:1002E0004FEA03334CEA133302D0524263EB430329
:1002F00094EA050F00F0A780A4F10104D5F1200EC7
:100300000DDB02FA0EFC22FA05F2801841F1000121
:1003100003FA0EF2801843FA05F359410EE0A5F1F5
:1003200020050EF1200E012A03FA0EFC28BF4CF026
:10033000020C43FA05F3C01851EBE37101F00045DC
:1003400007D54FF0000EDCF1000C7EEB00006EEBE9
:100350000101B1F5801F1BD3B1F5001F0CD3490873
:100360005FEA30004FEA3C0C04F101044FEA4452CA
:1003700012F5800F80F09A80BCF1004F08BF5FEA51
:10038000500C50F1000041EB045141EA050130BD31
:100390005FEA4C0C404141EB010111F4801FA4F1D4
:1003A0000104E9D191F0000F04BF01460020B1FA29
:1003B00081F308BF2033A3F10B03B3F120020CDA61
:1003C0000C3208DD02F1140CC2F10C0201FA0CF03F
:1003D00021FA02F10CE002F11402D8BFC2F1200CA4
:1003E00001FA02F120FA0CFCDCBF41EA0C0190405A
:1003F000E41AA2BF01EB0451294330BD6FEA0404A3
:100400001F3C1CDA0C340EDC04F11404C4F120028D
:1004100020FA04F001FA02F340EA030021FA04F39F
:1004200045EA030130BDC4F10C04C4F1200220FAF6
:1004300002F001FA04F340EA0300294630BD21FA34
:1004400004F0294630BD94F0000F83F4801306BFFA
:1004500081F480110134013D4EE77FEA645C18BFEE
:100460007FEA655C29D094EA050F08BF90EA020F85
:1004700005D054EA000C04BF1946104630BD91EA7D
:10048000030F1EBF0021002030BD5FEA545C05D180
:100490004000494128BF41F0004130BD14F58004BF
:1004A0003CBF01F5801130BD01F0004545F0FE4133
:1004B00041F470014FF0000030BD7FEA645C1ABF68
:1004C000194610467FEA655C1CBF0B46024650EA9F
:1004D000013406BF52EA033591EA030F41F40021CB
:1004E00030BD00BF90F0000F04BF0021704730B551
:1004F0004FF4806404F132044FF000054FF0000126
:1005000050E700BF90F0000F04BF0021704730B5E6
:100510004FF4806404F1320410F0004548BF4042BB
:100520004FF000013EE700BF42004FEAE2014FEA10
:1005300031014FEA02701FBF12F07F4393F07F4FEB
:1005400081F06051704792F0000F14BF93F07F4F1D
:10055000704730B54FF4607401F0004521F0004160
:1005600020E700BF50EA010208BF704730B54FF0E6
:1005700000050AE050EA010208BF704730B511F0EB
:10058000004502D5404261EB41014FF4806404F123
:1005900032045FEA915C3FF4DCAE4FF003025FEAA5
:1005A000DC0C18BF03325FEADC0C18BF033202EB2D
:1005B000DC02C2F1200300FA03FC20FA02F001FA87
:1005C00003FE40EA0E0021FA02F11444C1E600BF26
:1005D0004FF0FF3C06E000BF4FF0010C02E000BF0F
:1005E0004FF0010C4DF804CD4FEA410C7FEA6C5CF2
:1005F0004FEA430C18BF7FEA6C5C1BD001B050EA95
:10060000410C0CBF52EA430C91EA030F02BF90EA7F
:10061000020F0020704710F1000F91EA030F58BF3E
:10062000994208BF90422CBFD8176FEAE37040F0A0
:10063000010070474FEA410C7FEA6C5C02D150EA3E
:10064000013C07D14FEA430C7FEA6C5CD6D152EAF9
:10065000033CD3D05DF8040B704700BF84461046BE
:1006600062468C461946634600E000BF01B5FFF7BD
:10067000B7FF002848BF10F1000F01BD4DF808ED8D
:10068000FFF7F4FF0CBF012000205DF808FB00BF5E
:100690004DF808EDFFF7EAFF34BF012000205DF8B8
:1006A00008FB00BF4DF808EDFFF7E0FF94BF012005
:1006B00000205DF808FB00BF4DF808EDFFF7CEFF06
:1006C00094BF012000205DF808FB00BF4DF808ED45
:1006D000FFF7C4FF34BF012000205DF808FB00BF16
:1006E000014B1868704700BF1401002008B5FFF7E0
:1006F000F7FF044B5B68C3F30223034AD35CDBB20E
:10070000D84008BD001002401801002008B5FFF7CE
:10071000E7FF044B5B68C3F3C223034AD35CDBB23D
:10072000D84008BD001002401801002070B4036AD0
:1007300023F001030362036A4668826922F07302B0
:100740000C6842EA040523F002028B6813430F4C45
:10075000A04202D00E4A904205D123F00803CA6895
:10076000134323F00403094CA04202D0084A9042EC
:1007700005D126F440764A6932438E6916434660B5
:1007800085614A684263036270BC7047002C014077
:100790000034014030B4036A23F480730362036AB7
:1007A0004568C26922F073020C68224323F4007387
:1007B0008C6843EA0423124CA04203D004F5006481
:1007C000A04206D123F40063CC6843EA042323F457
:1007D00080630B4CA04203D004F50064A04207D113
:1007E00025F440554C6945EA04158C6945EA041521
:1007F0004560C2614A68C263036230BC704700BF93
:10080000002C014030B4036A23F480530362036A6E
:100810004468C26922F4E6420D6842EA052223F4E4
:1008200000538D6843EA0533094DA84203D005F50E
:100830000065A84204D124F480444D6944EA85143B
:100840004460C2614A680264036230BC704700BF02
:10085000002C014010B4036A046A24F0010404620D
:10086000846924F0F00444EA021223F00A031943D5
:10087000826101625DF8044B704700BF10B4036AE7
:1008800023F0100303628469036A24F4704444EA89
:10089000023223F0A00343EA0111826101625DF894
:1008A000044B704710B4846824F47F4442EA032365
:1008B000194344EA010383605DF8044B704700BFAD
:1008C00010B50468A36823F070024B68134323F04B
:1008D00007030A681343A3604B68502B1FD002D84C
:1008E000402B0BD010BD602B1FD0702B22D10B6979
:1008F0008A68C9680068FFF7D5FF10BD03681C6AE5
:100900001A6A22F001021A620268936923F0F00366
:10091000096943EA0113936103681C6210BD0A6907
:1009200089680068FFF796FF10BD0A69896800684A
:10093000FFF7A4FF10BD00BF704700BF38B590F8A7
:100940003C30012B18D00446012580F83C5002238E
:1009500080F83D30FFF7B4FF2268D36823F04003EE
:10096000D3602268D36823F48043D36084F83D5079
:10097000002084F83C0038BD022038BD0368244ABA
:10098000904212D002F5006290420ED0B0F1804F3A
:100990000BD0A2F59832904207D002F580629042C7
:1009A00003D002F58062904203D123F070034A68BD
:1009B0001343174A904212D002F5006290420ED0C3
:1009C000B0F1804F0BD0A2F59832904207D002F5DB
:1009D0008062904203D002F58062904203D123F4FA
:1009E0004073CA68134323F080034A6913430360CA
:1009F0008B68C3620B688362054B984203D003F592
:100A00000063984201D10B6903630123436170477E
:100A1000002C0140B8B110B5044690F83D3013F0F9
:100A2000FF0F04D1002380F83C30FFF785FF02233D
:100A300084F83D30211D2068FFF7A0FF012384F8D2
:100A40003D30002010BD0120704700BF30B4036A64
:100A500023F010030362036A4468826922F4E642C9
:100A60000D6842EA052223F020038D6843EA05134E
:100A7000114DA84203D005F50065A84206D123F028
:100A80008003CD6843EA051323F040030A4DA842D2
:100A900003D005F50065A84207D124F440644D69F0
:100AA00044EA85048D6944EA8504446082614A68A9
:100AB0008263036230BC7047002C014038B590F867
:100AC0003C30012B66D00D460446012380F83C30B3
:100AD000022380F83D300C2A55D8DFE802F0075495
:100AE00054541A5454542E54545441000068FFF77F
:100AF0001DFE2268936943F008039361226893699D
:100B000023F004039361226891692B690B4393617D
:100B100039E00068FFF79AFF2268936943F40063A5
:100B200093612268936923F48063936122689369D7
:100B3000296943EA0123936125E00068FFF72AFE53
:100B40002268D36943F00803D3612268D36923F094
:100B50000403D3612268D1692B690B43D36112E08E
:100B60000068FFF74FFE2268D36943F40063D36146
:100B70002268D36923F48063D3612268D369296929
:100B800043EA0123D361012384F83D30002084F837
:100B90003C0038BD022038BD10B4012303FA01F433
:100BA000036A23EA04030362036A8A401A43026267
:100BB0005DF8044B704700BF10B504460122006881
:100BC000FFF7EAFF23680C4A934205D002F5006262
:100BD000934203D1012202E0012200E000221AB177
:100BE0005A6C42F400425A642268136843F00103CD
:100BF0001360002010BD00BF002C014010B404237E
:100C000003FA01F4036A23EA04030362036A8A40D5
:100C10001A4302625DF8044B704700BF10B50446EA
:100C200004220068FFF7EAFF2268536C43F4004394
:100C300053642268136843F001031360002010BD61
:100C400090F83C30012B25D0012380F83C30CB6854
:100C500023F440728B68134323F480624B68134380
:100C600023F400620B68134323F480520B6913438F
:100C700023F400524B69134323F480438A691343DE
:100C800023F40043134302685364002380F83C308C
:100C9000184670470220704790F83C30012B21D055
:100CA00030B4012280F83C20022380F83D300468F3
:100CB000636823F070036360046865680B682B4306
:100CC00063600468A36823F08003A3600468A568D8
:100CD0004B682B43A36080F83D20002380F83C3014
:100CE000184601E00220704730BC704790F824306D
:100CF000012B27D0012380F8243003689A6812F072
:100D0000010F10D1124A926812F0010F0BD1114A53
:100D1000934208D110B45A6822F470240A6822431E
:100D20005A60002309E0836A43F0200383620123B1
:100D3000002280F8242018467047002280F82420E2
:100D4000184601E0022070475DF8044B704700BF71
:100D50000028014000240140074AD36823F4E063DF
:100D60001B041B0C000200F4E060184340F0BF605D
:100D700040F40030D060704700ED00E030B4164B16
:100D8000DB68C3F30223C3F10704042C28BF042447
:100D90001D1D062D01D9DD1E00E00025012303FAEB
:100DA00004F4013C2140A940AB40013B1A400A43F6
:100DB000002806DA00F00F001201D2B2074B1A54D5
:100DC00007E01201D2B200F1604000F5614080F806
:100DD000002330BC704700BF00ED00E014ED00E0E0
:100DE000420900F01F00012303FA00F0014B43F811
:100DF0002200704700E100E0430900F01F000122DB
:100E000002FA00F02033024A42F82300704700BF84
:100E100000E100E00138B0F1807F0AD2064B586053
:100E2000F021064A82F823100020986007221A60F9
:100E300070470120704700BF10E000E000ED00E0C7
:100E4000042805D1054A136843F004031360704772
:100E5000024A136823F004031360704710E000E0B7
:100E6000704700BF08B5FFF7FBFF08BDF0B583B0C2
:100E700000263446DFE00122A2400B6813409A426C
:100E800040F0D8804D68122D2DD00BD8022D27D0E0
:100E900003D85DB3012D1ED035E0032D30D0112DC8
:100EA0001BD030E0664FBD4220D008D8A7F5801790
:100EB000BD421BD007F58037BD4224D116E0614FFB
:100EC000BD4213D007F58037BD420FD0A7F580177C
:100ED000BD4218D10AE0CE6815E0CE68043612E0B3
:100EE000CE6808360FE0CE680C360CE08D684DB148
:100EF000012D02D10261082605E04261082602E0C8
:100F0000002600E00426FF2B01D8864601E000F110
:100F1000040EFF2B01D8A20002E0A4F10802920007
:100F2000DEF800700F25954027EA050506FA02F263
:100F30002A43CEF800204A6812F0805F7AD0424AF5
:100F4000956945F001059561926902F001020192EF
:100F5000019AA708BD1C3D4A52F825E004F003029F
:100F600092000F2595402EEA050E394DA84215D066
:100F700005F58065A84213D005F58065A84211D01B
:100F800005F58065A8420FD005F58065A8420DD013
:100F900005F58065A8420BD105250AE0002508E08B
:100FA000012506E0022504E0032502E0042500E017
:100FB000062505FA02F24EEA02020237234D45F8F1
:100FC00027204A6812F4803F05D005F580652A681D
:100FD0001A432A6004E01F4D2A6822EA03022A60AD
:100FE0004A6812F4003F04D01A4D6A681A436A60D6
:100FF00004E0184D6A6822EA03026A604A6812F443
:10100000801F04D0134DAA681A43AA6004E0114D52
:10101000AA6822EA0302AA604A6812F4001F04D0F8
:101020000C4DEA681343EB6004E00A4DEA6822EADB
:101030000303EB6001340F2C7FF61DAF03B0F0BD4E
:10104000000021100000311000100240000001409B
:1010500000080140000401408368194201D00120CA
:1010600070470020704700BF0AB101617047090452
:1010700001617047C3685940C1607047704700BF45
:1010800010B50446074B1B680748A0FB03308009D6
:10109000FFF7C0FE002221464FF0FF30FFF76EFE43
:1010A000002010BD14010020D34D621008B5074A7E
:1010B000136843F0100313600320FFF74DFE002078
:1010C000FFF7DEFFFFF7DAFF002008BD0020024037
:1010D000024A136801331360704700BF0406002002
:1010E000014B1868704700BF0406002030B583B07C
:1010F0000190FFF7F5FF0546019CB4F1FF3F00D0DA
:101100000134FFF7EDFF401BA042FAD303B030BD1E
:10111000704700BF70B483B00023019390F824306F
:10112000012B00F08880012380F824304B68062BC7
:101130000ED80668756B03EB8303053B1F249C40A8
:1011400025EA04040A6802FA03F3234373631EE0EA
:101150000C2B0ED805682A6B03EB8303233B1F245B
:101160009C4022EA04040A6802FA03F323432B6337
:101170000DE00568EA6A03EB8303413B1F249C40B2
:1011800022EA04040A6802FA03F32343EB620B68C1
:10119000092B0ED90668F56803EB43031E3B0724B1
:1011A0009C4025EA04048A6802FA03F32343F360AF
:1011B0000CE00668356903EB430307249C4025EAED
:1011C00004048A6802FA03F3234333610B68103B7B
:1011D000012B26D803681A4A93421CD19A6812F44C
:1011E000000F20D19A6842F400029A600B68102B1D
:1011F0001BD1144B1B68144AA2FB03239B0C03EB6B
:1012000083035A00019202E0019B013B0193019B81
:10121000002BF9D10AE0836A43F0200383620123A3
:1012200004E0002302E0002300E00023002280F815
:101230002420184600E0022003B070BC704700BFB5
:10124000002401401401002083DE1B4330B583B02D
:101250000023019303689A6812F0010F2FD19A6856
:1012600042F001029A60174B1B68174AA2FB032346
:101270009B0C019302E0019B013B0193019B002B1E
:10128000F9D10446FFF72CFF054611E0FFF728FFD0
:10129000401B02280CD9A36A43F01003A362E36A3F
:1012A00043F00103E362002384F82430012007E0C7
:1012B00023689B6813F0010FE8D0002000E00020B5
:1012C00003B030BD1401002083DE1B4390F82430AE
:1012D000012B71D010B50446012380F82430FFF7AC
:1012E000B5FF0346002863D1A26A22F4407222F0BF
:1012F000010242F48072A262226830498A4205D11A
:10130000A1F58061496811F4702F0ED1A16A21F412
:101310008011A162516811F4806F1CD0A16A21F480
:10132000405141F48051A16215E0A16A41F480115D
:10133000A16223498A4203D001F580618A420AD121
:101340001F49496811F4806F05D0A16A21F440510A
:1013500041F48051A162A16A11F4805F04D0E16A76
:1013600021F00601E16201E00021E162002184F840
:1013700024106FF0020111602268916801F460216D
:10138000B1F5602F0ED10D498A4205D1A1F58061DA
:10139000496811F4702F05D1916841F4A001916062
:1013A000184610BD916841F480119160184610BD37
:1013B000002284F8242010BD02207047002801403C
:1013C0000024014038B503689A6812F0010F1ED05E
:1013D00004469A6822F001029A60FFF781FE0546F2
:1013E0000EE0FFF77DFE401B022809D9A36A43F0F7
:1013F0001003A362E36A43F00103E362012038BDF6
:1014000023689B6813F0010FEBD1002038BD00204A
:1014100038BD00BF002800F0888070B50446836A9C
:1014200023B9C36280F82430FFF772FE2046FFF72D
:10143000C9FFA36A13F0100F71D100286FD1A36AFE
:1014400023F4885323F0020343F00203A36263688A
:101450002168374A914206D1E269B2F5402F03D1A3
:101460004FF4002200E0E2691343E56843EA4503D4
:10147000A268B2F5807F04D0012A05D14FF48076AE
:1014800003E04FF4807600E000266269012A0FD164
:1014900035B9A269013A46EA423242F4006607E0F1
:1014A000A26A42F02002A262E26A42F00102E26213
:1014B0004A6822F4694232434A6021688D681D4AB5
:1014C0002A401A438A60A268B2F5807F01D0012ABF
:1014D00003D12269013A110500E000212568EA6A7A
:1014E00022F470020A43EA6222689168124A0A40B2
:1014F000934208D10023E362A36A23F0030343F07D
:101500000103A36270BDA36A23F0120343F010032A
:10151000A362E36A43F00103E362012070BDA36AA2
:1015200043F01003A362012070BD0120704700BF8B
:10153000003C0140FDF7E1FFFE0E1FFF2DE9F843DF
:10154000814601680B6923F44052C36813430B6161
:10155000816803691943436919430068C26822F42A
:10156000B05323F00C030B43C360D9F800104B6950
:1015700023F44072D9F8183013434B61D9F8005066
:101580005B4B9D4259D1FFF7C1F800EB800000EBA7
:101590008000D9F80440A400B0FBF4F4554EA6FB3B
:1015A000043464092401FFF7B1F800EB800000EB7C
:1015B0008000D9F804309B00B0FBF3F7FFF7A6F8E2
:1015C00000EB800000EB8000D9F804309B00B0FBFA
:1015D000F3F3A6FB03235B094FF0640808FB1373C6
:1015E0001B013233A6FB03235B0903F0F0031C4409
:1015F000FFF78CF800EB800000EB8000D9F8043096
:101600009B00B0FBF3F7FFF781F800EB800000EBE5
:101610008000D9F804309B00B0FBF3F3A6FB032352
:101620005B0908FB13731B013233A6FB0323C3F3CF
:1016300043131C44AC60BDE8F883FFF757F800EB98
:10164000800000EB8000D9F80440A400B0FBF4F463
:10165000284EA6FB043464092401FFF747F800EB89
:10166000800000EB8000D9F804309B00B0FBF3F75A
:10167000FFF73CF800EB800000EB8000D9F8043065
:101680009B00B0FBF3F3A6FB03235B094FF0640858
:1016900008FB13731B013233A6FB03235B0903F022
:1016A000F0031C44FFF722F800EB800000EB800001
:1016B000D9F804309B00B0FBF3F7FFF717F800EB05
:1016C000800000EB8000D9F804309B00B0FBF3F3FE
:1016D000A6FB03235B0908FB13731B013233A6FB34
:1016E0000323C3F343131C44AC60BDE8F88300BF7D
:1016F000003801401F85EB51704700BF68B310B53B
:10170000044690F8393013F0FF0F04D1002380F81D
:101710003830FFF7F1FF242384F839302268D3688A
:1017200023F40053D3602046FFF708FF22681369B3
:1017300023F4904313612268536923F02A03536111
:101740002268D36843F40053D3600020E063202371
:1017500084F8393084F83A3010BD0120704700BF5A
:1017600000283ED010B403460168204A91420AD8AE
:101770001F4A0A441F49A1FB021212099200026487
:101780001D4AC26309E01D4A0A441A49A1FB02121C
:101790001209920002641A4AC263022283F82120CD
:1017A0001C68226822F47F5121F0300158689A6841
:1017B0001043DA6810431A6910435A6910439A6952
:1017C0001043DA6902430A43226000209862D8621B
:1017D000186358639863012283F8212083F820005E
:1017E00001E0012070475DF8044B70470704024098
:1017F000F8FFFDBFCDCCCCCC00000240F8FBFDBF14
:101800000004024030B589B00D20FFF7F5FA0C2036
:10181000FFF7F2FA2A4B5A6942F001025A615A69FB
:1018200002F001020192019A9A6942F008029A615B
:101830009A6902F008020292029ADA6942F480225E
:10184000DA61DB6903F480230393039B1D481E4D7B
:1018500005604FF41643436000248460C460046153
:101860008461C46108234361FFF748FF6B6943F05B
:1018700080036B614FF4806304930123069302237A
:1018800005930323079304A91048FFF7EFFA1048C4
:1018900005F5DC351C35056010234360846080232A
:1018A000C360046144618461C461FFF759FF094B5F
:1018B000AB606C607022084B5A6009B030BD00BF4D
:1018C000001002409006002000480040000C01403B
:1018D0009407002004480040000002402DE9F04F2A
:1018E00089B0934B9A6942F004029A619A6902F0B6
:1018F00004020092009A9A6942F008029A619A6979
:1019000002F008020192019A9A6942F010029A616B
:101910009A6902F010020292029A9A6942F0200239
:101920009A619B6903F020030393039B4FF0000A25
:10193000CDF814A0CDF818A0022707974FF0200982
:101940000DEB090444F8109D21467A48FFF78EFA02
:101950004023049321467748FFF788FA80250495B1
:1019600021467448FFF782FA4FF4806304932146BE
:101970007148FFF77BFA4FF40063049321466E48E9
:10198000FFF774FA4FF48056049621466A48FFF731
:101990006DFA049621466948FFF768FA04972146D4
:1019A0006648FFF763FA06974FF400530493214605
:1019B0006148FFF75BFA4FF48043049321465E4889
:1019C000FFF754FA4FF40046049621465A48FFF7B1
:1019D0004DFA4FF00108CDF81480CDF818A04FF063
:1019E000040ACDF810A021465548FFF73FFA554BA1
:1019F0005A6822F0E0625A605A6842F000725A60F7
:101A0000049621464D48FFF731FA4FF0100BCDF800
:101A100010B021464948FFF729FACDF81090214629
:101A20004648FFF723FA03230593CDF8108021469B
:101A30004148FFF71BFACDF8108021463F48FFF7D9
:101A400015FA0823049321463B48FFF70FFA049741
:101A500021463948FFF70AFACDF810B0214636483A
:101A6000FFF704FACDF8109021463348FFF7FEF94E
:101A7000CDF810A021463048FFF7F8F90823049369
:101A800021462E48FFF7F2F9CDF810A021462B4849
:101A9000FFF7ECF905974023049321462648FFF70A
:101AA000E5F9049521462448FFF7E0F94FF48079E1
:101AB000CDF8109021462048FFF7D8F9049521462B
:101AC0001E48FFF7D3F9CDF8108021461948FFF7DB
:101AD000CDF9049721461748FFF7C8F9CDF81090C3
:101AE00021461648FFF7C2F94FF4007304932146CC
:101AF0001248FFF7BBF94FF48063049321460F4867
:101B0000FFF7B4F94FF40053049321460948FFF757
:101B1000ADF94FF48043049321460648FFF7A6F938
:101B2000049621460348FFF7A1F909B0BDE8F08FFC
:101B300000100240000C014000100140000801406C
:101B400000140140000001402DE9F04F99B07B4B9B
:101B50009A6942F400629A619A6902F40062019201
:101B6000019A9A6942F400529A619B6903F4005306
:101B70000293029B724E734F3760002474604FF0E3
:101B80002008C6F80880DFF8C4B1DBF80030DFF8C1
:101B9000C0A1AAFB0323DB0AF36034617461B46162
:101BA0003046FEF737FF10231693179416A93046D8
:101BB000FFF772F860230F93109411940823129387
:101BC000139414944FF40073159322460FA93046D2
:101BD000FEF774FF04220FA93046FEF76FFF0822BC
:101BE0000FA93046FEF76AFF4FF4006308934FF4E5
:101BF000806309930A94CDF82C800C940D940E9474
:101C00000DEB08013046FFF71BF84F4DDFF844910C
:101C1000C5F800906C60C5F80880DBF80030AAFBBE
:101C2000033A4FEADA23EB602C616C61AC61284621
:101C3000FEF7F0FECDF858808023179316A92846AA
:101C4000FFF72AF8049418A9052341F8543D2846C3
:101C5000FEF774FE5023C9F8243060230F931094CC
:101C6000119408231293139414944FF40073159352
:101C700022460FA92846FEF721FF04220FA9284675
:101C8000FEF71CFF08220FA92846FEF717FF4FF4A6
:101C9000006308934FF4806309930A94CDF82C8075
:101CA0000C940D940E940DEB08012846FEF7C8FF26
:101CB000D9F8443023F40043C9F844307B6C23F452
:101CC00000437B6421462846FEF776FF0421284620
:101CD000FEF772FF08212846FEF76EFF21462846D0
:101CE000FEF79CFF04212846FEF798FF08212846AE
:101CF000FEF794FF21463046FEF75EFF0421304692
:101D0000FEF75AFF08213046FEF756FF21463046BF
:101D1000FEF784FF04213046FEF780FF082130469D
:101D2000FEF77CFF2B6801221A633268136843F0C8
:101D30000103136019B0BDE8F08F00BF001002402E
:101D400054070020002C0140280900201401002025
:101D5000D34D6210003401402DE9F04387B0434E6B
:101D6000B36943F40073B361B36903F40073009380
:101D7000009B3F4C3F4B23604FF48073A3600025D2
:101D8000E56065614FF44023E36165604FF005084D
:101D9000C4F810802046FFF73DFB374A536843F4F0
:101DA0008023536006A94FF4C02341F8043D204628
:101DB000FEF79CFF04950B2702974FF00109CDF821
:101DC0000C9002A92046FFF7A5F9CDF810900295D6
:101DD0000223039302A92046FFF79CF90E230293E6
:101DE0000323039302A92046FFF794F90C230293DF
:101DF0000423039302A92046FFF78CF907230493D9
:101E000010230293CDF80C8002A92046FFF782F937
:101E10002268936843F4000343F4807393609368EB
:101E200043EA09039360736943EA090373617369C1
:101E300003EA09030193019B104B1D60C3F8048062
:101E40000F4A9A600F4ADA6040F6A2221A601A68B6
:101E500042EA09021A602A4629463846FEF78EFFF2
:101E60003846FEF7BDFF07B0BDE8F0830010024022
:101E700060080020002401400000014008000240EA
:101E80004C240140D4080020F0B585B0284B9A6955
:101E900042F480629A619B6903F480630093009B23
:101EA000244C254B23604FF48073A3600025E5602C
:101EB00065614FF46023E361656005262661204675
:101EC000FFF7A8FA03950A2301930125029501A9BA
:101ED0002046FFF71FF903950D2301930227029770
:101EE00001A92046FFF716F90F2301930325029558
:101EF00001A92046FFF70EF90197042302930DEB89
:101F000003012046FFF706F9072303930195029684
:101F100001A92046FFF7FEF823689A6842F4807210
:101F20009A609A6842F001029A6005B0F0BD00BF65
:101F300000100240D00600200028014010B5002407
:101F4000094B1C70094B1C7005E0094B1C70642088
:101F5000FFF7CCF80134072CF7DD002220210548DB
:101F6000FFF782F8FEE700BFCC010020D20100207D
:101F7000D80100200008014010B5044C20706420F6
:101F8000FFF7B4F80023237010BD00BFD801002074
:101F900010B4000100B21468A0EB2440B0F5004F6B
:101FA00004DA064B9842B8BF184601E047F6FF70C6
:101FB00000FB014111605DF8044B70470080FFFF9A
:101FC00030B48910451AB5F5004F04DA164CAC420E
:101FD000B8BF2C4601E047F6FF7424111480B4F515
:101FE0007A7F04DC114DAC42B8BF2C4601E04FF4BF
:101FF0007A7414800144B1F5004F04DA0A4A914220
:10200000B8BF114601E047F6FF7109111980B1F51B
:102010007A7F04DC05488142B8BF014601E04FF4F5
:102020007A71198030BC70470080FFFF18FCFFFFF9
:1020300010B41488C4EB001000B2884204DC4B4298
:1020400019B2884200DB0146214411805DF8044B3F
:10205000704700BF08B5FEF743FB084BA3FB0030F9
:102060008009FEF7D7FE0420FEF7EAFE00221146A3
:102070004FF0FF30FEF782FE08BD00BFD34D621067
:10208000084BB3F908305B42074AB2F908209B1AA3
:1020900003EBD37343F34F03002BB8BF5B42034AF8
:1020A00013807047180D0020640C0020BC01002034
:1020B0002DE9F04186B0FEF7F9FFB64CA36943F075
:1020C0000103A361A36903F001030393039B0320AE
:1020D000FEF742FE002211466FF00B00FEF74EFEA7
:1020E000002211466FF00A00FEF748FE002211465A
:1020F0006FF00900FEF742FE002211466FF0040067
:10210000FEF73CFE002211466FF00300FEF736FE9C
:10211000002211466FF00100FEF730FE002211464A
:102120004FF0FF30FEF72AFEFFF794FF636923F0BC
:102130000103636100F0BEFBFFF7D0FBFFF704FD76
:10214000FFF70AFEFFF7A0FE012220219248FEF7CA
:102150008BFF9248FFF7BAF89148FFF7B7F80025D0
:1021600000950A232A468F49284600F0D7FF00959C
:102170004FF400738C4A8D49012000F0CFFF8C4C46
:10218000012384F8F930032284F8F62084F8F7302C
:1021900042F6E063A4F8CC304FF47A53A4F8D83078
:1021A00084F8F8504FF47A62A4F8CE204FF4C87245
:1021B000A4F8CA20A4F8DE30A4F8E0307D4EFC225A
:1021C0002146304602F065F986F8F9507A480460F5
:1021D0007A4BC3607A4B43607A4B83607A4C2660BB
:1021E0007A4BE3607A4B63607A4BA36002F04CF861
:1021F000204602F049F8082405E0774B1C70642063
:10220000FEF774FF013C002CF7DA0025724B1D70BD
:10221000FFF7F8FAADF81650ADF814506F4A138A6C
:102220001B050493138A2C460220FEF75FFF6C4EB9
:102230004FF400413046FEF70FFF07464FF40051C0
:102240003046FEF709FF28B94FF480413046FEF7CB
:1022500003FF70B14FF400516148FEF7FDFE012805
:1022600009D14FF480415E48FEF7F6FE28B90026FA
:1022700004E0012602E0022600E00226FFF700FF4C
:10228000564BDB899BB2A3F2C6234FF47A7202FB52
:1022900003F3544A93421CDC504BDB899BB2A3F2FC
:1022A000C6234FF47A7202FB03F313F5346F13DD88
:1022B0004A4BDA8992B2A2F2C6224FF47A7303FB38
:1022C00002F2494B83FB02131344D217C2EBE32300
:1022D00003E04FF47A7300E00023C7B143490B6871
:1022E00003EBC303424A82FB0302DB17C3EBA203E7
:1022F0000B60404BB3F90030312B16DC02223E4B11
:102300001A70012204213D48FEF7AEFE0DE0374A67
:1023100013602F4B5B78022B07D10322364B1A70C8
:10232000002204213548FEF79FFE012E03D1002232
:10233000334B1A6006E1002E40F09D80274B5B8AEC
:102340009BB2A3F2D6734FF47A7202FB03F32D4AC9
:1023500093421CDC214B5B8A9BB2A3F2D6734FF4F1
:102360007A7202FB03F3A2F5416293424EDB1B4BF0
:10237000598A89B2A1F2D6714FF47A7303FB01F145
:10238000214B83FB0123C917C1EB23223FE04FF40C
:102390007A723CE000100240000801406008002012
:1023A000D0060020084D0008680900201C4D0008D8
:1023B00018000020680B0020FC0D0020740C002089
:1023C000DC0D0020180D0020EC0D0020380D002041
:1023D000280D0020640C0020D8010020D408002023
:1023E000001001403FFD2B00B7600BB6A801002094
:1023F00067666666BC0100200500002000140140ED
:10240000AC01002050E81F0001385F1F0022464B3E
:102410005B8A9BB2C3F5FA6306334FF47A7101FB12
:1024200003F342498B421EDC3F4B5B8A9BB2C3F5F0
:10243000FA6306334FF47A7101FB03F3A1F6BD3161
:102440008B4213DB384B598A89B2C1F5FA610631E8
:102450004FF47A7303FB01F1354B83FB0103C9177A
:10246000C1EB632303E04FF47A7300E00023D31A37
:10247000304A136066E0022E64D12B4B5B8A9BB21C
:10248000C3F5FA6306334FF47A7202FB03F3274A6B
:1024900093421ADC244B5B8A9BB2C3F5FA63063382
:1024A0004FF47A7202FB03F3A2F6BD3293420FDBC4
:1024B0001D4B5A8A92B240F2D6739A1A4FF47A712F
:1024C00001FB02F292FBF3F103E04FF47A7100E0BA
:1024D0000021154B5B8A9BB2A3F2D6734FF47A723C
:1024E00002FB03F3144A93421ADC0F4B5B8A9BB244
:1024F000A3F2D6734FF47A7202FB03F3A2F54162A2
:1025000093421BDB084B5B8A9BB2A3F2D6724FF45B
:102510007A7303FB02F340F6290293FBF2F30EE019
:102520004FF47A730BE000BFD4080020C5A31E004F
:10253000EF085741AC01002050E81F000023CB1AE0
:10254000B44A1360B44B1968B248036803FB01F343
:10255000B24A82FB0362DB17C3EBA2130360B04AEB
:10256000D089528A0020AF4A1060AF4A1278E2B98F
:102570003131622919D83133622B16D8AB4B1A8806
:1025800041F270739A4210D10620FFF7F5FC042047
:10259000FFF7F2FC6420FEF7A9FD0123A24A1370A5
:1025A0000021A24A1180A24A1370A14B1B78FF2B75
:1025B00007D100229E4B1A7003239E4A13709E4A35
:1025C0001370994B1A784FF400419C48FEF74CFD6C
:1025D0009B4E32464FF4F0718E4BB3F90000FFF77B
:1025E00027FDDFF8B08242464FF4F0718A4BB3F911
:1025F0000000FFF71DFD934FB6F900003A4641F683
:1026000099110011FFF7C4FC8F4EB8F90000324653
:1026100041F699110011FFF7BBFC396809153068C4
:1026200000150DF1160305AA09010001FFF7C8FC0A
:10263000BDF91660A5F132039E4215DD3235AE427A
:1026400012DABDF91430A4F1320293420CDD3234B7
:10265000A34209DA734A1268042A05D85B427B4A0E
:10266000136073427A4A1360BDF914406C4B188AA8
:1026700004AA40F28F2100B2FFF78AFC754B1A685A
:102680007548A2FB0001531A01EB53035B0903EBEE
:102690008303C3EBC3039A4244D15F4BB3F90010E9
:1026A000002000F0EFFB5B4BB3F90010012000F0BD
:1026B000E9FBBDF91410022000F0E4FBBDF916108F
:1026C000032000F0DFFB564B998909B2042000F08B
:1026D000D9FB624BB3F9002040F64B6303FB02F3D6
:1026E0005F4981FB0321DB17C3EB612109B20520A0
:1026F00000F0C8FB5B4B1978062000F0C3FB5A4B77
:102700005978072000F0BEFB584BB3F900100820A1
:1027100000F0B8FB564BB3F90010092000F0B2FBF3
:1027200000F0B6FB02214548FEF796FC98B1002266
:102730003D4B1A7002214148FEF78EFC0028F9D16A
:102740004C4B5B6A13F0805F03D001224A4B1A6046
:1027500001E0FFF7F3FB434B1B7813B9474B1B78A2
:102760004BB10022304B1A700822454B1A700122DF
:10277000444B1A701EE0394BB3F9003040F224523A
:10278000934206DC404AB2F90020132A01DCFFF72D
:10279000D5FBA3F225539BB2312B06D80522384B2B
:1027A0001A700622374B1A7004E00023344A137063
:1027B000344A1370BDF916502846FDF7A3FE0022D7
:1027C0000023FDF765FF18B16D42322D12DC01E0E8
:1027D000322D0FDCBDF914502846FDF793FE002280
:1027E0000023FDF755FF18B16D42322D02DC05E0E4
:1027F000322D03DD0022254B1A6003E0234A1368C3
:1028000001331360214B1A68214B9A4244D9FFF7D8
:1028100095FB00BFAC010020A8010020D34D621041
:10282000D408002000000020D2010020C0010020B8
:10283000E401002005000020040000200008014001
:10284000A6010020B8010020A0010020DC0100202A
:10285000D4010020B0010020D5411DD40A00002081
:1028600045A3A85BD9010020DC0D0020C801002091
:10287000CA01002000100240E0044242D1010020C1
:10288000D8010020CC010020BC010020B4010020B0
:1028900000710200A4010020044A13680133136090
:1028A000034A1368013313603546BDE4B0010020CC
:1028B000000000200023134A13804FF4FA621249EB
:1028C0000A8012490A8012490A8012490A80124974
:1028D0000A8012490A8040F21B61114A1180114995
:1028E000114A1160114A1370114A1370114A136092
:1028F000114A1360114A9380D3801381538153800E
:1029000013807047C001002008000020060000204E
:1029100012000020100000201400002016000020EB
:102920000A0000200000B0610C000020D20100204D
:10293000C6010020D4010020DC010020D4080020C2
:1029400030B583B00222A04B5A60A04B9B88ADF8F3
:1029500004309F4B1B88ADF8063004220DEB0201BA
:10296000012000F0C1FB9B4B1B8841F26F72934228
:102970006AD80133974A138094488288944CB4F9FA
:10298000003003EB830103EB410313FA82F3924916
:1029900081FB0352DB17C3EB62032380C2888F4C99
:1029A000B4F9003003EB830503EB450313FA82F31C
:1029B00081FB0352DB17C3EB620323800289884C3F
:1029C000B4F9003003EB830503EB450313FA82F3FC
:1029D00081FB0352DB17C3EB620323804289814CE6
:1029E000B4F9003003EB830503EB450313FA82F3DC
:1029F00081FB0352DB17C3EB6203238042887A4CCE
:102A0000B4F9003003EB830503EB450313FA82F3BB
:102A100081FB0352DB17C3EB6203238002887348F8
:102A2000B0F9003003EB830403EB440313FA82F3A1
:102A300081FB0321DB17C3EB610303806C4B1B7825
:102A4000002B00F0ED8106E0694B1B78012B02D1D1
:102A5000FF22674B1A70674B1A68674BA3FB021380
:102A60009B094FF47A7101FB132363B9574B988983
:102A7000624C224640F28F2100B2FFF789FA2368A8
:102A80001B155F4A1380514B9A8892B250490988AE
:102A90008A1A12B25B490A80DA8892B24F490988D1
:102AA0008A1A12B258490A805A8892B24E49098845
:102AB0008A1A12B2554802805A8992B24949098845
:102AC0008A1A12B252490A801A8992B24449098874
:102AD0008A1A12B24F490A801B889BB2434A128855
:102AE000D31A1BB24C4A1380008800B2FDF70AFDCE
:102AF00000220023FDF7CCFD20B1444B1B881BB204
:102B00005B4202E0414B1B881BB240F252329342BF
:102B100006DC424B1B68052B02D8414B1B782BB9B6
:102B2000404A536C23F40043536404E03D4A536C21
:102B300043F400435364384B188800B2FDF7E2FCBD
:102B400000220023FDF7A4FD20B1334B1B881BB2EC
:102B50005B4202E0304B1B881BB240F25232934280
:102B600006DC2E4B1B68052B02D82D4B1B782BB98E
:102B70002D4A536C23F40043536404E02A4A536CF7
:102B800043F4004353641B4A136801331360274A1C
:102B90001478002C52D0264AA2FB0312120B2549AE
:102BA00009780131B2FBF1F001FB1022002A45D176
:102BB000B3FBF4F204FB1233002B44D110211E4866
:102BC000FEF758FA3FE000BF00000240D4080020A2
:102BD00008000020C0010020ABAAAA2A060000209D
:102BE0001200002010000020140000201600002019
:102BF000E4010020E0010020D34D62100C00002011
:102C00000A000020C8010020CA010020BE010020E7
:102C1000C2010020C4010020CE01002000000020DD
:102C2000D201002000340140002C0140D8010020D6
:102C30005917B7D1CC010020000801400022102113
:102C40007848FEF711FA784B1B78002B40F0E880AB
:102C50000122754B1A70754B1B783BB1744B1B7876
:102C600033B9744B1B782BB1002204E0002202E040
:102C7000002200E00122D2B26F4B1A706F4B9968AC
:102C800011F0200F0CBF01240024996811F0400FAF
:102C90000CBF012000209B6813F0800F0CBF0121A6
:102CA0000021674B1A70674A12785A70664A126898
:102CB0005A801C7158719971644A12881A81644A49
:102CC00012885A81634A12889A81634B186800F00F
:102CD000C5FB624BB3F90000B3F90210B3F904204D
:102CE0009C79534B1C7000F2654440F666039C428D
:102CF00001DD184606E0632C03DD00F2654080B27A
:102D000000E06420564C606301F26540834202DAC1
:102D100040F6660106E0632803DD01F2654189B2F1
:102D200000E064214E48816302F265418B4202DA81
:102D300040F6660206E0632903DD02F2654292B2C4
:102D400000E06422464BDA63A3F510539A6812F44C
:102D5000806F0CBF012000209A6812F4006F0CBF36
:102D6000012100219B6813F4805F0CBF0122002227
:102D70003C4B314C24781C70324C24785C703A4CBB
:102D800024685C80187159719A71384A12881A81C6
:102D9000374A12885A81374A12889A81364B186806
:102DA00000F05CFB354BB3F90000B3F90210B3F946
:102DB00004209C791F4B1C7000F2654440F66603AA
:102DC0009C4201DD184606E0632C03DD00F26540FD
:102DD00080B200E064202A4C606301F265408342C7
:102DE00002DA40F6660106E0632803DD01F2654180
:102DF00089B200E064212248816302F265418B427E
:102E000002DA40F6660206E0632903DD02F265425B
:102E100092B200E064221A4BDA630022024B1A706D
:102E200003B030BD00080140D0010020D2010020D5
:102E3000D9010020D1010020C6010020000C014072
:102E4000DC0D002005000020D4010020C801002076
:102E5000CA010020BE010020284D0008180D0020E6
:102E600000340140280D0020DC010020C2010020B8
:102E7000C4010020CE010020044D0008640C002095
:102E8000002C0140014B23F810107047700E0020F9
:102E90002DE9F04188B0DFF88C80642200214046A3
:102EA00001F002FB1C49B1F800E0B1F802C08888CB
:102EB00000B2CC8824B20D892DB24E8936B28F89EA
:102EC0003FB2CB891BB20A8A12B2498A09B2079172
:102ED00006920593049703960295019400900FFAC9
:102EE0008CF30FFA8EF20D49404601F0E5FA0C4BD7
:102EF0005B6873B90A4C236823F0010323604046E2
:102F0000FDF754F96060C4F80C80236843F00103B6
:102F1000236008B0BDE8F081700E00202C4D000841
:102F20001C0002400C0E0020704700BFFEE700BFEF
:102F3000FEE700BFFEE700BFFEE700BF704700BF2F
:102F4000704700BF704700BF08B5FEF7C1F8FDF736
:102F500089FF08BD0369C268934204D88068801A5B
:102F60000344581E70479B1A581E70472DE9F041C4
:102F7000064688461446C7688568ED1B954207D902
:102F80004068384401F085FA3C44F460BDE8F081C3
:102F900040682A46384401F07CFA641B224608EB5C
:102FA0000501706801F075FAF460BDE8F08100BFBA
:102FB0002DE9F843064688461746C5684FF00009D4
:102FC0003469A54202D2641B013C03E0B368641B70
:102FD0001C44013CB3685B1B9C4228BF1C46BC429E
:102FE00028BF3C46706822464146284401F051FA09
:102FF000A144A0443F1B2544B3689D4200D1002555
:10300000F560002FDCD14846BDE8F883144B05225B
:103010001A6101225A6113499961134ADA614FF426
:1030200080621A6200229A625A62DA62C3F89010D1
:103030000E49C3F894101021C3F89810C3F8A020CB
:10304000C3F89C20C3F8A420094A1068C3F80700FD
:10305000084A92E803001860998020229A7170470C
:10306000840E0020644D0008F8010020E8010020D3
:10307000704D0008744D000870B50E461546431C8F
:1030800003EB4303DC00174A144400EB4000C30089
:103090001344DB6A012B0ED013B1022B17D01CE0B6
:1030A0002046FFF757FFA84219D32A46314620464B
:1030B000FFF75CFF14E02046FFF74CFF854228BF76
:1030C00005462A4631462046FFF750FF08E02A46CB
:1030D0002046FFF76DFF054602E0002500E00025D1
:1030E000284670BD840E0020F8B505460E461746EA
:1030F000094B1B780BB9FFF789FFEFF311844FF0F1
:10310000200181F311883A4631462846FFF7B4FF83
:1031100084F31188F8BD00BF840E0020F8B5044682
:103120000F4616461D46194B1B780BB9FFF76EFF6D
:10313000164B1B69A34225D9EFF311804FF02001F4
:1031400081F311889CB1DFF844E0621C530003EB6B
:10315000020C4FEACC014EF8017071444E606200DF
:103160002244D30073441D6200229A625A6204EB27
:103170004404E300054A1344069ADA6280F3118896
:103180000020F8BD4FF0FF30F8BD00BF840E0020D6
:10319000884209DD411A89B2B1FBF2F29A4201D2AA
:1031A000D0B27047D8B2704700207047884209D922
:1031B000411A89B2B1FBF2F29A4201D2D0B2704701
:1031C000D8B2704700207047CB0FB3EBD07F05D04B
:1031D00090FBF1F301FB130313B903E0002301E0BB
:1031E0004FF0FF3390FBF1F01844704701807047B7
:1031F00012B9B3F9002000E00022104400B2884266
:1032000001DA188070471980704700BFF0B5BDF92A
:103210001460069F079C089D02FB00F2002A03DA57
:10322000C2F1004EBE4509DC002A05DD6FF0004EFC
:10323000C2EB0E0E774504DC3A4404E04FF0004246
:1032400001E06FF000422F7917B14FF0000E00E05F
:1032500096462F68774400FB01F1C912B1F5004F83
:1032600003DA11F5004F03DB03E047F6FF7100E0DE
:103270001D49381401EB40014910B1F5004F03DA44
:1032800011F5004F03DB03E047F6FF7100E016493C
:1032900009B2994201DD238004E0B14201DA2680BF
:1032A00000E02180002A04DB002AD4BF0022012292
:1032B00001E04FF0FF32002904DB0029D4BF0020D9
:1032C000012001E04FF0FF30824205D1994205DC38
:1032D000B14205DB002304E0002302E0012300E00B
:1032E00001232B712F60F0BD0080FFFF00230360DE
:1032F0004360704770B4B0F900501E68A5EB2644D7
:10330000B4F5004F03DA14F5004F03DB03E047F692
:10331000FF7400E00E4C01FB0464251415801C6052
:10332000B0F902405D68A4EB2540B0F5004F03DA28
:1033300010F5004F03DB03E047F6FF7000E00448A0
:1033400001FB005001145180586070BC704700BFF1
:103350000080FFFF41607047F0B4BDF91070059E1A
:10336000069D01FB00F1091104D52C68C1F1004054
:1033700084420ADB002905DD2C686FF00040401A0A
:10338000844205DC2868014404E04FF0004101E07C
:103390006FF000416C682144081304B29C4201DDC7
:1033A000338004E0BC4201DA378000E03480B6F9B3
:1033B0000040231A1BB202FB03F22A606960F0BCD2
:1033C000704700BF018070470AB91A8800E00022E8
:1033D000104480B2884201D218807047198070472B
:1033E0000B780870181A18BF0120704710B50446F2
:1033F00000210430FFF7E6FF0021A01CFFF7E2FFE9
:1034000010BD00BF2DE9F8430646884691461D468B
:10341000089CA7792146FFF7E3FF66B15FB9231D3A
:10342000024641460120FFF7CFFF80452CBF002018
:10343000012028700EE066B95FB1A31C0246494620
:103440000120FFF7C1FF814534BF00200120287013
:1034500000E02F702B78A371BDE8F8832DE9F04FC1
:1034600095B00568C4684668D0F8088096F804E00E
:103470004FEA8E00C7B273795800C0B23844C0B268
:10348000B77938445FFA80FB191C18BF012194F802
:1034900093C094F8942094F89500BEF1000F18BFE3
:1034A00081F00101002F0CBF0B4681F00103BCF13C
:1034B000000F18BF83F00103002A0CBF1A4683F0E7
:1034C0000102002818BF82F00102002A77D094F987
:1034D0008C10B74B5B4493F9880794F98D30C31A6D
:1034E0005BB2012B02D013F1050F03D1012384F845
:1034F0008C3002E0FF2384F88C3084F88D00B4F91E
:103500007C00A4F85A001FFA80FEB4F97E30C3EBA9
:103510000E039BB21FB2002F01DA5B421FB2B5F956
:1035200004309F4203DB012384F8A13006E0B5F9A3
:1035300006309F4202DC002384F8A13094F8A130C9
:1035400084F89A3094F98C90494514BF4FF0010CDF
:103550004FF0000C02D094F89F70EFB9494502D0AB
:10356000B4F9863019E02BB16B891B0193FBF0F3A2
:103570001BB212E06989890089B20F01B4F980A0F9
:10358000B4F98230B4F9841053440B4473441BB231
:1035900097FBF3F10BB200E0002319FB03F3A4F84F
:1035A0007A30A4F87E00B4F98230A4F88030B4F9FF
:1035B0008430A4F88230A4F8840084F89FC004F119
:1035C0004403B5F908100120FFF712FE0990B5F980
:1035D0000830984203DCB4F97A30059301E0002307
:1035E0000593059B002B03DA5B421BB2069301E0B7
:1035F000059B0693B5F9D230069A9A4203DB012364
:1036000084F8A03007E0B5F9D030069A9A4202DC7F
:10361000002384F8A03094F8A03023B194F89A30B5
:103620001BB1002302E0002300E0012303F0FF02AE
:103630000792FBB1B4F95A700999B94200DB3946D7
:1036400094F98C20012A04D1594B5B4493F98807E3
:1036500005E0574B5B4493F98837013358B289032F
:1036600091FBF7F313FB02F2830303FA82F343F3B4
:103670008F0310E094F98C30012B04D14C4B5B4448
:1036800093F9883705E04A4B5B4493F98837013357
:103690005BB21B031BB2002B00DC0023C3EB031344
:1036A0001B110D931BB20893B6F90270B7F5006FAA
:1036B00005DA17F5006F05DD3F013FB203E047F67D
:1036C000FF7700E03B4F94F89B301A460B93B5F917
:1036D000DAA095F8F730002B41D0002A3FD098F8B7
:1036E000063013F0040F13D1B4F98830002B01DA3F
:1036F0005B421BB2B5F9DC20934204DD069B5345C7
:1037000003DB002302E0002300E00123DBB200E042
:103710000123BBF1070F02D14FF0020901E04FF086
:103720000009BBF1000F08BF09F101099B00DBB2E2
:103730009944AA89E98919F0FF0904F10203009369
:1037400004F1990314BF01200020FFF75BFE21461E
:1037500094F89900FFF744FE08B188F8069094F9B0
:103760008E2094F89B3013B94FF0FF3300E0002314
:1037700084F88E30934203D012B9FF2284F890204F
:10378000002B40F0078133785BB194F8993053B93E
:10379000737853B194F8922093420DD072B90023FC
:1037A0000DE001230BE0012309E0012307E000BF46
:1037B0007C4D00080080FFFF002300E00123DBB206
:1037C00094F896204AB9012384F89630022384F8AD
:1037D0009730002384F8923048E094F89720012A2B
:1037E0001CD143B1002384F89830022284F897203A
:1037F00084F892303AE094F89830012B02D0022BF2
:1038000004D007E0022384F892302FE0032384F8E9
:1038100092302BE0012384F8923027E0002284F8D4
:1038200092201BBB7378013BDBB2022B1ED8069B98
:1038300053451BDA012384F897307378032B06D1A4
:10384000022384F89830032384F892300EE0022B90
:1038500006D1012384F89830022384F8923005E0E1
:10386000032384F89830012384F8923095F8F630D9
:10387000022B2DD10023ADF84430B5F91030ADF84E
:103880004630B5F9D830ADF84830B5F9CC30ADF8A0
:103890004A30B7F57A5F04DC17F57A5F04DABE4A7E
:1038A00003E04FF47A5200E03A46737814A901EB32
:1038B000430333F90C3C5B01B84981FB0301DB177F
:1038C000C3EBE1039BB202FB03F343F30F320BE0C4
:1038D000B7F57A5F04DC17F57A5F04DAAE4A03E0E5
:1038E0004FF47A5200E03A4694F9900094F89230FE
:1038F000003318BF012359B284F8901013B1002B84
:1039000046D147E0884204D0012384F89E3000234A
:10391000E364B4F98810090311F0006F02D041F09C
:10392000784101E021F0784194F89E00002384F86A
:103930009E3010B9D4F84CE000E08E46CEF1000283
:1039400012F0006F02D042F0784C01E022F0784C87
:103950002B689C450BDC5A4212F0006F02D042F0FB
:10396000784301E022F078439C4500DB63467344D2
:1039700013F0006F02D043F0784301E023F0784366
:1039800008B1E16400E0E3641B13A4F85C3001E0DB
:10399000A4F85C2094F89C300A93B6F908904FEA9A
:1039A000091946F63F23994505DC7D4B994505DB12
:1039B0000FFA89F904E046F6402901E0DFF8E491C6
:1039C000B6F90A301B0146F63F22934204DC744AE2
:1039D000934204DB1BB203E046F6402300E0714B48
:1039E00095F8F820002A4CD00A9A002A49D095F878
:1039F000F610002945D0002F01DA7F423FB2B5F919
:103A0000DEE0774505DCB5F9E020974202DB3A4677
:103A100000E07246022902D1B5F9CEA001E0B5F965
:103A2000CAA0B5F9D400069F874204DCB5F9D610C8
:103A30008F4202DA02E0014600E00699B5F8E0C0E4
:103A4000CCEB020212B2D203CCEB0E0E0FFA8EFEBA
:103A500092FBFEF292B2B5F8D6E0CEEB010109B2CC
:103A6000C903CEEB000000B291FBF0F189B202FB7A
:103A700001F2C2F3CF320AFB02F747F3CF37A4F8C3
:103A80005E7094F98F2095F8F610022902D04FF05D
:103A9000FF3A01E04FF0000A84F88FA0924515D05C
:103AA000A2B994F9911019B9A4F85610A4F85810B5
:103AB000FF2184F891100021A4F85010A4F85210AE
:103AC000A4F85410A4F85610A4F85810BAF1000F36
:103AD00040F01A8312B10022A4F88A20B4F95C20C5
:103AE0000E92002A02DA524212B20E92B4F95E200D
:103AF000524212B20F9295F8F92022B344F6E7121F
:103B000002FB09F102FB03F3002902DA47F6FF7713
:103B100000E000270F44FF13002B02DA43F6FF7288
:103B200000E00022134443F38F331F44B7F5004FE6
:103B300003DA17F5004F03DB03E047F6FF7700E0F9
:103B4000194F3FB235E04A461946C3EB0903B3F5B6
:103B5000004F03DA13F5004F03DB03E047F6FF7372
:103B600000E0114B44F6E71707FB03F3002B02DAE2
:103B700047F6FF7700E000273B4443F3CF3753423B
:103B80005B1AB3F5004F03DA13F5004F0EDB0EE0BE
:103B900047F6FF730BE000BF80C1FFFFD34D6210FB
:103BA000C195FFFFC095FFFF0080FFFFC74B0FFAD5
:103BB00083F9B423802200210898FFF7E9FA0C90DA
:103BC00094F9913032780AB94FF0FF3A84F891A015
:103BD0009A4505D023B90022A4F85620A4F858200D
:103BE000BAF1000F49D11BB104F12400FFF77EFBAD
:103BF0003846DFF8DCC20C9B03F535723CF9121035
:103C000001FB07F747F38F374A4603F5077E0CEBB6
:103C10004E03B3F9063003FB09F949F38F39C9EBB9
:103C20000707B7F5004F03DA17F5004F03DB03E092
:103C300047F6FF7700E0A54FADF84C7002FB01F2AC
:103C400042F38F3203FB00F343F38F331344B3F596
:103C5000004F03DA13F5004F03DB03E047F6FF7371
:103C600000E09A4BADF84E3004F1240304F1560203
:103C7000B5F8EA1013A8FFF73DFB94F89C30002B31
:103C800000F0B380B5F91030A4F860305B42A4F8BE
:103C90006230B4F98A00002801DA404200B2B5F976
:103CA0007020B5F96E10521A2D2392B2FFF770FAF8
:103CB000083005EB4000B0F90290A4F86490C9F117
:103CC0000003A4F86630B5F9CC70A4F86870B4F9B4
:103CD0005E000004B0F1004F02D1B7F1FF3F02D007
:103CE00090FBF7F001E06FF00040002803DBB0F537
:103CF000803F02DA03E0002001E04FF6FF7031233D
:103D000040F21F52002180B2FFF750FA00F56270B6
:103D10006F4B03EB4000438807FB03F73F14A4F805
:103D20006A70B8B243421BB2A4F86C3094F8922087
:103D3000022A30D0032A3FD0012A51D1B4F956309B
:103D4000002B01DA5B421BB2B5F8E220B5F8F010A7
:103D5000C01A04F11C03029304F1740301930027B9
:103D60000097DDF838904B4600B2FFF7F5FAB5F949
:103D7000D800B5F8E220B5F8F410069BC01A04F19B
:103D80001403029304F17203019300974B4600B2AF
:103D9000FFF7E2FA24E0B4F95620974204DB93429D
:103DA00001DD1F4600E01746BF1A3FB2B5F8F030FC
:103DB00003FB07F7A76413E0B5F9D800B5F8E220D4
:103DC000B5F8F410069BC01A04F10C03029304F139
:103DD00070030193002300934B4600B2FFF7BCFA37
:103DE000B4F968305B42A4F86E3094F89D30002B33
:103DF00000F0C980079B5BB3B4F968300F99994212
:103E000004DCB4F96E30994200DB0B46B4F958007B
:103E1000181AB0F5004F03DA10F5004F03DB03E08A
:103E200047F6FF7000E02948B4F96030B5F8EC209F
:103E3000B5F8E41004F13C07039704F17807029702
:103E400000270197B4F96270009700B2FFF7DEF91E
:103E500094F89230022B2ED0032B54D0012B40F03B
:103E60008E80B4F974100E9A8A4200DA1146B4F9C1
:103E70007230994200DA0B46B4F95C20002A04DB68
:103E8000002AD4BF0022012201E04FF0FF3213FBD1
:103E900002F31BB2B4F96420934202DDA4F8762049
:103EA00071E0B4F96620934202DAA4F876206AE061
:103EB000A4F8763067E0B4F95C00059BC01AB0F551
:103EC000004F07DA10F5004F07DB07E00080FFFF27
:103ED0007C4D000847F6FF7000E0BD48B4F964303F
:103EE000B5F8F220B5F8E81004F13407039704F1AF
:103EF00076070297A76C0197B4F96670009700B235
:103F0000FFF784F93FE0B4F97030594209B2B4F9CF
:103F10005C00B4F96A20904204DCB4F96C20904251
:103F200000DB0246B4F95600101AB0F5004F03DA70
:103F300010F5004F03DB03E047F6FF7000E0A448F4
:103F4000B4F96420934200DD1346B4F96670B942B7
:103F500000DD0F46B5F8EE20B5F8E61004F12C0EA2
:103F6000CDF80CE004F1760ECDF808E04FF0000E2D
:103F7000CDF804E0009700B2FFF748F903E0B4F988
:103F80005C30A4F87630B4F97810924B0C9A02F5B4
:103F9000357233F9122002FB01F040F38F3EB4F981
:103FA00076700C9800F5077003EB4003B3F906C078
:103FB0000CFB07F343F38F33C3EB0E00B0F5004F58
:103FC00003DA10F5004F03DB03E047F6FF7000E073
:103FD0007F480CFB01F343F38F3307FB02F242F3FC
:103FE0008F321A44B2F5004F03DA12F5004F03DBAB
:103FF00003E047F6FF7200E0754A43F26D7303FB7E
:1040000002F2002A02DA43F6FF7300E000239F1851
:1040100002B200EBD27343F34E03C3EBA733B3F505
:10402000004F03DA13F5004F03DB03E047F6FF739D
:1040300000E0674B50421BB21F46C01AB0F5004F5C
:1040400003DA10F5004F03DB03E047F6FF7000E0F2
:104050005F489A4201DA964600E09E4600B28645E5
:1040600000DB86469A4200DD1346834200DC0346AD
:104070007344B3F5004F03DA13F5004F03DB03E09D
:1040800047F6FF7300E0524B43F34F03D21AB2F5E9
:10409000004F03DA12F5004F03DB03E047F6FF722F
:1040A00000E04B4A44F6E71E0EFB02F242F38F3269
:1040B000A4F85020FF1AB7F5004F03DA17F5004FA8
:1040C00003DB03E047F6FF7700E0414F44F6E712D9
:1040D00002FB07F747F38F37A4F85270C01AB0F508
:1040E000004F03DA10F5004F03DB03E047F6FF70E3
:1040F00000E0374844F6E71303FB00F040F38F304D
:10410000A4F85400A4F88A1095F8F630022B02D1D6
:10411000B4F9767001E0B4F95C70079A42B1022BF1
:1041200006D1B4F95010B4F95220B4F954306CE00F
:10413000079A002A41D0012B3FD195F8F830C3B13E
:10414000B4F95E5094F98C3015FB03F52DB20D9B3C
:1041500003EB8505ADB24FF4B44128B2FFF734F854
:1041600000EB4000C0EB0013580280B2281A00B2E6
:1041700000E00898B42380220021FFF709F8B4F981
:104180005C30144D35F9101003FB01F141F38F3110
:1041900000F1B40205EB4202B2F9022003FB02F285
:1041A00042F38F3200F5B47005EB4000B0F9040023
:1041B00003FB00F343F38F3327E0064B5B4493F993
:1041C0008837052B08DC002B07DA002305E000BF49
:1041D0000080FFFF7C4D0008052303EB4303294DBE
:1041E000EA1892F97617B8B211FB00F109B25A1C1D
:1041F0002A4492F9762712FB00F212B202332B44C2
:1042000093F9763713FB00F31BB20911A8F80010DD
:104210001211A8F80220327984F89320727984F878
:104220009420B27984F89520BDF82420A4F87C204D
:10423000BDF81820A4F8862094F89D2084F89B20CF
:10424000A4F888709DF82C2084F89C209DF82820E4
:1042500084F89D201B11A8F80430059B1B11A8F8B9
:104260000830089B9B11A8F80A30B4F956301B118E
:10427000A8F80C30B4F958301B11A8F80E3015B05E
:10428000BDE8F08F7C4D000838B50268C468FF2394
:1042900084F88E3084F8903084F88F3084F8913030
:1042A000B2F90830A4F87C30012584F89B50B2F9AB
:1042B0000830A4F85A30B2F9081004F14400FEF7AF
:1042C00095FFA01CFFF792F884F89E50002104F19E
:1042D0001C00FFF73FF8002104F11400FFF73AF843
:1042E000002104F10C00FFF735F84FF46152A4F8F7
:1042F00060204CF2C073A4F86230A4F86420A4F8E3
:10430000663042F6E062A4F868204DF22013A4F86B
:104310006E30A4F86A20A4F86C3038BD82B0002357
:10432000019300932B4A136843F001031360294B58
:104330001B6803F002030093019B01330193009B70
:1043400023B9019A4FF6FF739A42F0D1214B1B68B3
:1043500013F0020F02D00123009301E00023009329
:10436000009B012B34D11B4B5A685A605A6822F4C7
:1043700060525A605A685A605A6822F4E0625A6081
:104380005A6842F480625A605A6822F0604222F40D
:104390007C125A605A6842F0005242F480225A60FD
:1043A0001A6842F080721A600A4B1B6813F0007F93
:1043B000FAD0084B5A6822F003025A605A6842F059
:1043C00002025A60034B5B6803F00C03082BF9D11F
:1043D00002B070470010024008B5FFF79FFF08BD0C
:1043E00010B5164CD4F8883043F47003C4F8883004
:1043F000134B1A6842F001021A605968114A0A40C8
:104400005A601A6822F0847222F480321A601A68A4
:1044100022F480221A605A6822F0684222F47F0255
:104420005A60196B084A0A401A634FF41F029A60D7
:10443000FFF7D2FF4FF00063A36010BD00ED00E076
:10444000001002400C00FFE800FFFEFE002103E028
:104450000A4B5B584350043109480A4B42189A42B0
:10446000F6D3094A02E0002342F8043B074B9A4284
:10447000F9D3FFF7B5FFFDF71BFE70476055000845
:10448000000000208401002084010020300F002063
:10449000FEE710B5431E0A44914204D011F8014BC7
:1044A00003F8014FF8E710BD02440346934202D0DF
:1044B00003F8011BFAE770470EB400B59CB04FF447
:1044C00002711DABADF81410029006906FF0004120
:1044D0000A48049107914FF6FF7153F8042BADF889
:1044E00016100068019302A900F064F8029B0022F4
:1044F0001A701CB05DF804EB03B070478001002017
:104500002DE9F0478E689E4282460C4691469846B9
:104510003ED88A8912F4906F3AD0256809696F1ADB
:104520006569022305EB450595FBF3F57B1C4344C8
:104530009D4238BF1D4653050FD5294600F034FB78
:10454000064698B13A462169FFF7A3FFA38923F4F1
:10455000906343F08003A38113E02A4600F082FBBE
:10456000064670B92169504600F0D0FA0C23CAF80B
:104570000030A38943F04003A3814FF0FF30BDE832
:10458000F087266165613E44ED1B2660A5604646C6
:10459000464528BF464632464946206800F09AFA0A
:1045A000A3689B1BA36023681E4426600020BDE80F
:1045B000F08700002DE9F04F9DB0804603938B8972
:1045C0001C060D4616460DD50B695BB9402100F05F
:1045D000EBFA2860286118B90C23C8F80030CDE048
:1045E00040236B610023099320238DF82930DFF8E5
:1045F0009CB130238DF82A3037463C4614F8013BF5
:104600001BB9B7EB060910D003E0252BF9D02746DC
:10461000F3E74B46324629464046FFF771FF01302B
:1046200000F0A780099B4B4409933B78002B00F0D6
:10463000A08000234FF0FF32049307930592069366
:104640008DF853301A930126052221784E48FBF746
:10465000B7FD671C049B38B14B4A801A06FA00F07C
:10466000184304903C46EFE7D90644BF20228DF85A
:1046700053201A0744BF2B228DF8532022782A2A70
:1046800003D0079A00210A200BE0039A111D12683B
:104690000391002A10DA524243F00200079204907C
:1046A0000BE0274601343B78303B092B03D800FB55
:1046B00002320121F5E701B107923B782E2B1ED182
:1046C0007B782A2B0AD1039B1A1D1B680392002BAF
:1046D000B8BF4FF0FF330237059310E00023059376
:1046E000781C19460A24074601303A78303A092ADC
:1046F00003D804FB01210123F5E703B1059103224F
:1047000039782248FBF75CFD40B14023CBEB000039
:1047100003FA00F0049B18430490013739781C48D1
:104720008DF8281006227E1CFBF74AFD88B1194B34
:1047300033B9039B073323F007030833039314E0D3
:1047400003AB00932A46144B04A94046AFF3008004
:1047500007E003AB00932A460F4B04A9404600F044
:1047600093F8B0F1FF3F824603D0099B534409936D
:1047700042E7AB895B0601D4099801E04FF0FF30B6
:104780001DB0BDE8F08F00BF0C55000812550008A1
:104790001655000800000000014500082DE9F0470B
:1047A00091461F460A698B68DDF820809342B8BFA6
:1047B0001346C9F8003091F8432006460C4612B162
:1047C0000133C9F800302368990642BFD9F8003098
:1047D0000233C9F80030256815F0060510D104F140
:1047E000190A07E00123524639463046C0470130D6
:1047F0001AD00135E368D9F800209B1A9D42F1DBFD
:1048000094F843302268003318BF012392060FD575
:10481000E1185A1C302081F84300224494F84510D6
:1048200082F84310023303E04FF0FF30BDE8F08719
:1048300004F1430239463046C0470130F4D02268C3
:10484000D9F80050E36802F00602042A08BF5D1B95
:104850002269A3680CBF25EAE57500259342C4BF11
:104860009B1AED184FF000091A344D4509D0012369
:10487000224639463046C0470130D5D009F10109FA
:10488000F3E70020BDE8F0872DE9F04317460A7EE4
:1048900085B06E2A984606460C460C9B01F1430EE5
:1048A00000F0AE8011D8632A22D009D8002A00F087
:1048B000BB80582A40F0CA8081F84520834955E0E2
:1048C000642A1ED0692A1CD0C0E0732A00F0B08090
:1048D00009D86F2A2ED0702A40F0B8800A6842F0BA
:1048E00020020A603EE0752A24D0782A3AD0ADE052
:1048F0001A6801F14205111D1960136884F84230ED
:10490000A8E021681A6811F0800F02D0111D19600B
:1049100008E011F0400F02F10401196002D0B2F971
:10492000003000E01368002B3CDA2D225B4284F853
:10493000432037E021681A6811F0800F02D0111D62
:10494000196007E011F0400F02F10401196001D075
:10495000138800E01368227E5C496F2A14BF0A2284
:1049600008221BE078225A4984F8452022681868FA
:1049700012F0800F00F104051D6003D1550601D52A
:10498000038800E00368D00744BF42F020022260A1
:104990001BB9226822F0200222601022002084F835
:1049A000430001E049490A226568A560002D08DB43
:1049B000206820F0040020602BB9002D7DD17546C1
:1049C0000CE0002B79D07546B3FBF2F002FB1033FC
:1049D000CB5C05F8013D03460028F5D1082A0BD130
:1049E0002368DA0708D5236962689A42DEBF30235C
:1049F00005F8013C05F1FF35C5EB0E0323612EE000
:104A000008681A68496910F0800F03D0101D1860FB
:104A1000136808E010F0400F02F1040018601368FA
:104A200001D0198000E0196000232361754616E06B
:104A30001A68111D19601568626800212846FBF785
:104A4000BFFB08B1401B6060636804E004F14205ED
:104A500084F8422001232361002384F84330CDF8F9
:104A600000803B4603AA21463046FFF797FE0130FF
:104A700002D14FF0FF3026E023692A4639463046FE
:104A8000C0470130F5D023689B0710D5002504F1FD
:104A9000190907E001234A4639463046C04701302C
:104AA000E7D00135E368039A9B1A9D42F2DBE06888
:104AB000039B9842B8BF184605E00B7884F8423053
:104AC00004F142058AE705B0BDE8F0831D550008F2
:104AD0002E550008884210B501EB020301D8421E92
:104AE0000BE09842FBD28118D21AD34204D013F8BB
:104AF000014D01F8014DF8E710BD994204D011F8BD
:104B0000014B02F8014FF8E710BD000038B505462B
:104B1000002946D051F8043C0C1F002BB8BFE41804
:104B200000F0D6F81F4A1368114613B96360146089
:104B300032E0A3420ED92268A018834204BF18684D
:104B40005B68636004BF121822600C6024E0A2421C
:104B500003D813465A68002AF9D118681918A142D7
:104B60000BD12168014458188242196014D1106891
:104B700052685A60014419600EE002D90C232B6080
:104B80000AE021686018824204BF106852686260BF
:104B900004BF091821605C602846BDE8384000F079
:104BA00098B838BDFC05002070B5CD1C25F0030574
:104BB00008350C2D38BF0C25002D064601DBA94217
:104BC00002D90C23336046E000F082F8234B1C68C6
:104BD0001A462146A1B10B685B1B0ED40B2B03D9DF
:104BE0000B60CC18CD501EE08C420DBF63684B6843
:104BF0006360136018BF0C4615E00C464968E9E78E
:104C0000174C23681BB9304600F052F82060294643
:104C1000304600F04DF8431C18D0C41C24F00304A7
:104C2000A0420DD12560304600F053F804F10B008E
:104C3000231D20F00700C31A0ED05A42E25070BD67
:104C4000211A304600F034F80130EBD10C233360E8
:104C5000304600F03EF8002070BD00BFFC0500208B
:104C6000F8050020F8B5074615460E4621B911464D
:104C7000BDE8F840FFF798BF1AB9FFF747FF28468D
:104C8000F8BD00F027F885420ED929463846FFF7CF
:104C90008BFF044650B131462A46FFF7FAFB3146F6
:104CA0003846FFF733FF01E03046F8BD2046F8BD37
:104CB00038B5064C002305460846236000F014F87A
:104CC000431C02D1236803B12B6038BD2C0F002098
:104CD0007047704751F8040C0028BEBF091851F8FE
:104CE000043CC01804387047044A05491368002B77
:104CF00008BF0B4618441060184670470006002095
:104D0000300F0020EC0D00204A53636F70655F691F
:104D10003269326932753275320000004A53636F6E
:104D200070655F7532753200FC0D0020313A2569DF
:104D300020323A256920333A256920343A25692002
:104D4000353A256920363A256920373A25692038D1
:104D50003A256920393A25692031303A25690D0A0A
:104D6000000000005465726D696E616C0000000007
:104D7000525454005345474745520000DDCCBECA4B
:104D8000D2C81BC797C547C427C338C277C1E1C083
:104D900073C02CC007C001C016C043C083C0D4C0BC
:104DA00031C197C102C26EC2D8C23DC39BC3EFC31B
:104DB00036C470C49AC4B4C4BCC4B4C49AC470C465
:104DC00036C4EFC39BC33DC3D8C26EC202C297C1F3
:104DD00031C1D4C083C043C016C001C007C02CC0BD
:104DE00073C0E1C077C138C227C347C497C51BC78A
:104DF000D2C8BECADDCC30CFB7D16ED455D769DAB0
:104E0000A9DD0FE19AE445E80DECEDEFE0F3E3F7FF
:104E1000EFFB000011041D08200C1310F313BB1747
:104E2000661BF11E57229725AB28922B492ED030B6
:104E3000233342352E37E538693AB93BD93CC83D72
:104E4000893E1F3F8D3FD43FF93FFF3FEA3FBD3FC3
:104E50007D3F2C3FCF3E693EFE3D923D283DC33C09
:104E6000653C113CCA3B903B663B4C3B443B4C3B56
:104E7000663B903BCA3B113C653CC33C283D923DA0
:104E8000FE3D693ECF3E2C3F7D3FBD3FEA3FFF3FA9
:104E9000F93FD43F8D3F1F3F893EC83DD93CB93BC8
:104EA000693AE5382E3742352333D030492E922BDC
:104EB000AB2897255722F11E661BBB17F31313105F
:104EC000200C1D0811040000EFFBE3F7E0F3EDEF09
:104ED0000DEC45E89AE40FE1A9DD69DA55D76ED407
:104EE000B7D130CFDDCC443B4C3B663B903BCA3B1B
:104EF000113C653CC33C283D923DFE3D693ECF3EA2
:104F00002C3F7D3FBD3FEA3FFF3FF93FD43F8D3F00
:104F10001F3F893EC83DD93CB93B693AE5382E3739
:104F200042352333D030492E922BAB289725572278
:104F3000F11E661BBB17F3131310200C1D08110480
:104F40000000EFFBE3F7E0F3EDEF0DEC45E89AE44A
:104F50000FE1A9DD69DA55D76ED4B7D130CFDDCCFA
:104F6000BECAD2C81BC797C547C427C338C277C1BA
:104F7000E1C073C02CC007C001C016C043C083C0CD
:104F8000D4C031C197C102C26EC2D8C23DC39BC357
:104F9000EFC336C470C49AC4B4C4BCC4B4C49AC405
:104FA00070C436C4EFC39BC33DC3D8C26EC202C235
:104FB00097C131C1D4C083C043C016C001C007C06F
:104FC0002CC073C0E1C077C138C227C347C497C59E
:104FD0001BC7D2C8BECADDCC30CFB7D16ED455D72F
:104FE00069DAA9DD0FE19AE445E80DECEDEFE0F3B5
:104FF000E3F7EFFB000011041D08200C1310F3135E
:10500000BB17661BF11E57229725AB28922B492E02
:10501000D030233342352E37E538693AB93BD93C95
:10502000C83D893E1F3F8D3FD43FF93FFF3FEA3FD8
:10503000BD3F7D3F2C3FCF3E693EFE3D923D283D2A
:10504000C33C653C113CCA3B903B663B4C3B443BFC
:10505000DDCC30CFB7D16ED455D769DAA9DD0FE1F9
:105060009AE445E80DECEDEFE0F3E3F7EFFB000029
:1050700011041D08200C1310F313BB17661BF11E3F
:1050800057229725AB28922B492ED0302333423517
:105090002E37E538693AB93BD93CC83D893E1F3FB8
:1050A0008D3FD43FF93FFF3FEA3FBD3F7D3F2C3F5F
:1050B000CF3E693EFE3D923D283DC33C653C113CE0
:1050C000CA3B903B663B4C3B443B4C3B663B903B76
:1050D000CA3B113C653CC33C283D923DFE3D693EC8
:1050E000CF3E2C3F7D3FBD3FEA3FFF3FF93FD43FDE
:1050F0008D3F1F3F893EC83DD93CB93B693AE538F1
:105100002E3742352333D030492E922BAB289725AA
:105110005722F11E661BBB17F3131310200C1D083A
:1051200011040000EFFBE3F7E0F3EDEF0DEC45E8D1
:105130009AE40FE1A9DD69DA55D76ED4B7D130CF43
:10514000DDCCBECAD2C81BC797C547C427C338C267
:1051500077C1E1C073C02CC007C001C016C043C0F6
:1051600083C0D4C031C197C102C26EC2D8C23DC390
:105170009BC3EFC336C470C49AC4B4C4BCC4B4C423
:105180009AC470C436C4EFC39BC33DC3D8C26EC2B9
:1051900002C297C131C1D4C083C043C016C001C090
:1051A00007C02CC073C0E1C077C138C227C347C451
:1051B00097C51BC7D2C8BECADDCC0020EA21CA23CE
:1051C0009E2567272329D32A752C0A2E902F073175
:1051D0006F32C7330F3546366D3782388639783AA5
:1051E000573B243CDE3C853D193E9A3E073F613FDC
:1051F000A63FD83FF63F0040F63FD83FA63F613F6D
:10520000073F9A3E193E853DDE3C243C573B783AA9
:10521000863982386D3746360F35C7336F320731DE
:10522000902F0A2E752CD32A232967279E25CA235F
:10523000EA2100200C1E0E1C081AFA17E415C713E9
:10524000A4117C0F4E0D1D0BE808B10677043C023B
:105250000000C4FD89FB4FF918F7E3F4B2F284F0C3
:105260005CEE39EC1CEA06E8F8E5F2E3F4E100E074
:1052700016DE36DC62DA99D8DDD62DD58BD3F6D1A1
:1052800070D0F9CE91CD39CCF1CABAC993C87EC7D6
:105290007AC688C5A9C4DCC322C37BC2E7C166C184
:1052A000F9C09FC05AC028C00AC000C00AC028C0A8
:1052B0005AC09FC0F9C066C1E7C17BC222C3DCC32C
:1052C000A9C488C57AC67EC793C8BAC9F1CA39CC01
:1052D00091CDF9CE70D0F6D18BD32DD5DDD699D81E
:1052E00062DA36DC16DE00E0F4E1F2E3F8E506E827
:1052F0001CEA39EC5CEE84F0B2F2E3F418F74FF9F3
:1053000089FBC4FD00003C027704B106E8081D0BD0
:105310004E0D7C0FA411C713E415FA17081A0E1CC2
:105320000C1E00206D3746360F35C7336F320731FC
:10533000902F0A2E752CD32A232967279E25CA234E
:10534000EA2100200C1E0E1C081AFA17E415C713D8
:10535000A4117C0F4E0D1D0BE808B10677043C022A
:105360000000C4FD89FB4FF918F7E3F4B2F284F0B2
:105370005CEE39EC1CEA06E8F8E5F2E3F4E100E063
:1053800016DE36DC62DA99D8DDD62DD58BD3F6D190
:1053900070D0F9CE91CD39CCF1CABAC993C87EC7C5
:1053A0007AC688C5A9C4DCC322C37BC2E7C166C173
:1053B000F9C09FC05AC028C00AC000C00AC028C097
:1053C0005AC09FC0F9C066C1E7C17BC222C3DCC31B
:1053D000A9C488C57AC67EC793C8BAC9F1CA39CCF0
:1053E00091CDF9CE70D0F6D18BD32DD5DDD699D80D
:1053F00062DA36DC16DE00E0F4E1F2E3F8E506E816
:105400001CEA39EC5CEE84F0B2F2E3F418F74FF9E1
:1054100089FBC4FD00003C027704B106E8081D0BBF
:105420004E0D7C0FA411C713E415FA17081A0E1CB1
:105430000C1E0020EA21CA239E2567272329D32A90
:10544000752C0A2E902F07316F32C7330F35463631
:105450006D3782388639783A573B243CDE3C853DAF
:10546000193E9A3E073F613FA63FD83FF63F0040B6
:10547000F63FD83FA63F613F073F9A3E193E853D24
:10548000DE3C243C573B783A863982386D37FFFF43
:10549000F3FFCCFF8AFF2EFFB7FE26FE7AFDB3FC9A
:1054A000D1FBD3FABAF984F831F7C1F534F488F2B4
:1054B000BEF0D4EECAEC9EEA51E8E0E54BE391E0A1
:1054C000B0DDA6DA73D713D485D0C6CCD5C8ADC4A9
:1054D0004BC0ABBBC8B69EB125AC55A625A08B99D9
:1054E0007692D58A8E8281797C6F37643357804774
:1054F000AE32FF0100FF000100FF0101FF000100CB
:10550000FF0001FF0002000104030500232D302BE2
:105510002000686C4C0065666745464700303132B4
:10552000333435363738394142434445460030310B
:10553000323334353637383961626364656600006A
:10554000F8B500BFF8BC08BC9E467047F8B500BF70
:08555000F8BC08BC9E46704740
:0455580075010008D1
:04555C0051010008F1
:10556000640000000101D007D0071B060000B061F5
:10557000D007D007D007D007003000002800140063
:10558000D007AB2980250005403840383C383238F8
:1055900020380738E737BF3791375B371D37D836A4
:1055A0008B363736DA3575350835933415348E3306
:1055B000FD326432C03112315930952FC52EE92D9C
:1055C000002D092C032BED29C6288C273E26D92433
:1055D0005B23C0210420211E101CC5192F17321473
:1055E0009510CB0B0000000040018002C0030005B5
:1055F00040068007C008000A400B800CC00D000F59
:1056000040108011C012001440158016C0170019F8
:10561000401A801BC01C001E401F8020C021002398
:1056200040248025C02600284029802AC02B002D38
:10563000402E802FC030003240338034C0350037D8
:1056400040389001E02EA00FF000E0010019C012D8
:10565000803E30008025C05D803E00033303CD04D2
:10566000E112B81EE102CD04E102FB00F6000201E6
:105670000001000000A24A0400000000010203042F
:10568000000000000000000000000000000000001A
:10569000000000000000000000000000000000000A
:1056A00000000000000000000000000000000000FA
:1056B00000000000000000000000000000000000EA
:1056C00000000000000000000000000000000000DA
:1056D00000000000000000000000000000000000CA
:0456E0002001002085
:040000050800444D5E
:00000001FF
